:0400000000040020D8
:040004008101000076
:040008009D01000056
:04000C009F01000050
:0400100000000000EC
:0400140000000000E8
:0400180000000000E4
:04001C0000000000E0
:0400200000000000DC
:0400240000000000D8
:0400280000000000D4
:04002C00A10100002E
:0400300000000000CC
:0400340000000000C8
:04003800A301000020
:04003C00A50100001A
:04004000A701000014
:04004400A90100000E
:04004800AB01000008
:04004C00AD01000002
:04005000AF010000FC
:04005400B1010000F6
:04005800B3010000F0
:04005C00B5010000EA
:04006000B7010000E4
:04006400B9010000DE
:04006800BB010000D8
:04006C00BD010000D2
:04007000BF010000CC
:04007400551600001D
:04007800E905000096
:04007C000D1600005D
:040080003116000035
:04008400C1010000B6
:04008800C3010000B0
:04008C00C5010000AA
:04009000C7010000A4
:04009400C90100009E
:04009800CB01000098
:04009C00CD01000092
:0400A000CF0100008C
:0400A4000000000058
:0400A8000000000054
:0400AC00D10100007E
:0400B000D301000078
:0400B400D501000072
:0400B800D70100006C
:0400BC00D901000066
:1017240050726F6A6563742022257322202573200A
:1017340025730A00494E5445525354454C4C41526A
:0C17440000302E312E36003230313600DD
:0808F40010B50021E648016087
:1008FC00FFF7F6FDE549E6480160E6480068E64981
:10090C00FFF714FCE5494843E54908600021E54838
:02091C00016078
:02091E0004E0F3
:0A092000E3480068401CE24908604B
:0A092A00E1480168DF4800688142DF
:0E093400F4D3D849DE480160D8480068D8499D
:10094200FFF7F9FBD8494843D84908600021D74846
:02095200016042
:0209540004E0BD
:0A095600D6480068401CD449086030
:0A096000D3480168D14800688142C5
:0E096A00F4D3D249CB480160CB480068CB499A
:10097800FFF7DEFBCA494843CA4908600021CA4854
:0209880001600C
:02098A0004E087
:0A098C00C8480068401CC749086015
:0A099600C6480168C44800688142A9
:0E09A000F4D3C549C3480160BD480068BD4995
:1009AE00FFF7C3FBBD494843BD4908600021BC4861
:0209BE000160D6
:0209C00004E051
:0A09C200BB480068401CB9490860FA
:0A09CC00B8480168B648006881428F
:0409D600F4D303242F
:0209DA009FE399
:0C09DC008021AF480160AF480068AF49BF
:1009E800FFF7A6FB1E214843AE4908600021AE4828
:0209F80001609C
:0209FA0004E017
:0A09FC00AC480068401CAB490860DD
:0A0A0600AA480168A8480068814270
:0E0A1000F4D3AA49A1480160A1480068A14999
:100A1E00FFF78BFB1E214843A14908600021A04827
:020A2E00016065
:020A300004E0E0
:0A0A32009F480068401C9D490860C1
:0A0A3C009C4801689A480068814256
:0E0A4600F4D39D499448016094480068944997
:100A5400FFF770FB1E214843934908600021934827
:020A640001602F
:020A660004E0AA
:0A0A680091480068401C90490860A6
:0A0A72008F4801688D48006881423A
:0E0A7C00F4D380218C480160864800688649CA
:100A8A00FFF755FB1E214843864908600021854827
:020A9A000160F9
:020A9C0004E074
:0A0A9E0084480068401C824908608B
:0A0AA800814801687F480068814220
:0E0AB200F4D383497948016079480068794996
:100AC000FFF73AFB1E214843784908600021784827
:020AD0000160C3
:020AD20004E03E
:0A0AD40076480068401C7549086070
:0A0ADE007448016872480068814204
:0E0AE800F4D37449714801606B4800686B4993
:100AF600FFF71FFB1E2148436B49086000216A4827
:020B060001608C
:020B080004E007
:0A0B0A0069480068401C6749086054
:0A0B140066480168644800688142E9
:0E0B1E00F4D369495E4801605E4800685E4994
:100B2C00FFF704FB1E2148435D49086000215D4826
:020B3C00016056
:020B3E0004E0D1
:0A0B40005B480068401C5A49086039
:0A0B4A0059480168574800688142CD
:0E0B5400F4D35A495648016050480068504991
:100B6200FFF7E9FA1E2148435049086000214F4827
:020B7200016020
:020B740004E09B
:0A0B76004E480068401C4C4908601E
:0A0B80004B480168494800688142B3
:0E0B8A00F4D34F494348016043480068434993
:100B9800FFF7CEFA1E214843424908600021424827
:020BA8000160EA
:020BAA0004E065
:0A0BAC0040480068401C3F49086003
:0A0BB6003E4801683C480068814297
:0E0BC000F4D340493B48016035480068354990
:100BCE00FFF7B3FA1E214843354908600021344827
:020BDE000160B4
:020BE00004E02F
:0A0BE20033480068401C31490860E8
:0A0BEC00304801682E48006881427D
:0E0BF600F4D335492848016028480068284992
:100C0400FFF798FA1E214843274908600021274826
:020C140001607D
:020C160004E0F8
:0A0C180025480068401C24490860CC
:0A0C22002348016821480068814260
:0E0C2C00F4D32649204801601A4800681A498E
:100C3A00FFF77DFA1E2148431A4908600021194826
:020C4A00016047
:020C4C0004E0C2
:0A0C4E0018480068401C16490860B1
:0A0C58001548016813480068814246
:0E0C6200F4D31B490D4801600D4800680D4990
:100C7000FFF762FA1E2148430C49086000210C4826
:020C8000016011
:020C820004E08C
:0A0C84000A480068401C0949086096
:040C8E0008480168A9
:020C920021E05F
:040C94000404002034
:040C980080010000D7
:040C9C0020000C40E8
:040CA0000C02000042
:040CA4004C4F0000B1
:040CA80090010000B7
:040CAC001004002010
:040CB0000804002014
:040CB40024000C40CC
:040CB80000600000D8
:040CBC000001000033
:040CC000000200002E
:040CC4000004000028
:040CC8000008000020
:040CCC000010000014
:040CD0000020000000
:040CD40000400000DC
:060CD800E64800688142BD
:0E0CDE00D1D3E549E6480160E6480068E649E2
:100CEC00FFF724FA1E214843DF4908600021E3483E
:020CFC00016095
:020CFE0004E010
:0A0D0000E1480068401CE04908606B
:0A0D0A00DF480168D9480068814203
:0E0D1400F4D3DD49D8480160D8480068D849BA
:100D2200FFF709FA1E214843D24908600021D5483D
:020D320001605E
:020D340004E0D9
:0A0D3600D4480068401CD249086050
:0A0D4000D1480168CB4800688142E9
:0E0D4A00F4D3D049CB480160CB480068CB49B8
:100D5800FFF7EEF91E214843C44908600021C8483E
:020D6800016028
:020D6A0004E0A3
:0A0D6C00C6480068401CC549086035
:0A0D7600C4480168BE4800688142CD
:0E0D8000F4D3C349C3480160BD480068BD49B3
:100D8E00FFF7D3F91E214843B74908600021BA483E
:020D9E000160F2
:020DA00004E06D
:0A0DA200B9480068401CB74908601A
:0A0DAC00B6480168B04800688142B3
:0E0DB600F4D3B449B6480160B0480068B049B3
:100DC400FFF7B8F91E214843A94908600021AD483E
:020DD4000160BC
:020DD60004E037
:0A0DD800AB480068401CAA490860FF
:0A0DE200A9480168A3480068814297
:0E0DEC00F4D3A249A8480160A2480068A249B9
:100DFA00FFF79DF91E2148439C49086000219F483E
:020E0A00016085
:020E0C0004E000
:0A0E0E009E480068401C9C490860E3
:0A0E18009B4801689548006881427C
:0E0E2200F4D39A4995480160954800689549B7
:100E3000FFF782F91E2148438E490860002192483D
:020E400001604F
:020E420004E0CA
:0A0E440090480068401C8F490860C8
:0A0E4E008E48016888480068814260
:0E0E5800F4D38F498D480160874800688749B0
:100E6600FFF767F91E21484381490860002184483D
:020E7600016019
:020E780004E094
:0A0E7A0083480068401C81490860AD
:0A0E8400804801687A480068814246
:0E0E8E00F4D37E497A4801607A4800687A49B8
:100E9C00FFF74CF91E21484373490860002177483D
:020EAC000160E3
:020EAE0004E05E
:0A0EB00075480068401C7449086092
:0A0EBA00734801686D48006881422A
:0E0EC400F4D37549724801606C4800686C49AF
:100ED200FFF731F91E21484366490860002169483D
:020EE2000160AD
:020EE40004E028
:0A0EE60068480068401C6649086077
:0A0EF000654801685F480068814210
:0E0EFA00F4D35E495F4801605F4800685F49BD
:100F0800FFF716F91E2148435849086000215C483C
:020F1800016076
:020F1A0004E0F1
:0A0F1C005A480068401C594908605B
:0A0F260058480168524800688142F3
:0E0F3000F4D35B4957480160514800685149AD
:100F3E00FFF7FBF81E2148434B49086000214E483D
:020F4E00016040
:020F500004E0BB
:0A0F52004D480068401C4B49086040
:0A0F5C004A480168444800688142D9
:0E0F6600F4D34B4944480160444800684449B4
:100F7400FFF7E0F81E2148433D490860002141483D
:020F840001600A
:020F860004E085
:0A0F88003F480068401C3E49086025
:0A0F92003D480168374800688142BD
:0E0F9C00F4D341493C480160364800683649AC
:100FAA00FFF7C5F81E21484330490860002133483D
:020FBA000160D4
:020FBC0004E04F
:0A0FBE0032480068401C304908600A
:0A0FC8002F480168294800688142A3
:0E0FD200F4D3314929480160294800682949B3
:100FE000FFF7AAF81E21484322490860002126483D
:020FF00001609E
:020FF20004E019
:0A0FF40024480068401C23490860EF
:0A0FFE00224801681C480068814287
:0E100800F4D38021214801601B4800681B4979
:10101600FFF78FF81E21484315490860002118483C
:02102600016067
:0210280004E0E2
:0A102A0017480068401C15490860D3
:0A103400144801680E48006881426C
:0E103E00F4D317490E4801600E4800680E49B1
:10104C00FFF774F81E2148430749086000210B483C
:02105C00016031
:02105E0004E0AC
:0A10600009480068401C08490860B8
:06106A000748016801487F
:021070001AE084
:041074001004002044
:041078000010000064
:04107C0024000C4000
:041080000C0200005E
:041084004C4F0000CD
:041088000804002038
:04108C000020000040
:04109000004000001C
:0410940020000C40EC
:04109800000800004C
:04109C00000400004C
:0410A000000200004A
:0410A4000001000047
:0410A8000068814219
:0E10AC00D8D34149414801604148006841499C
:1010BA00FFF73DF81E2148434049086000213F4898
:0210CA000160C3
:0210CC0004E03E
:0A10CE003E480068401C3C490860E1
:0A10D8003B48016839480068814276
:0E10E200F4D38021344801603448006834495A
:1010F000FFF722F81E214843324908600021324898
:0211000001608C
:0211020004E007
:0A11040030480068401C2F490860C5
:0A110E002E4801682C480068814259
:04111800F4D3641E8A
:02111C00012CA4
:02111E0000DBF4
:021120005CE48D
:0C1122002A492A4801602448006824493A
:10112E00FFF703F828494843234908600021224865
:02113E0001604E
:0211400004E0C9
:0A11420021480068401C1F490860A6
:0A114C001E4801681C48006881423B
:10115600F4D31C49174801601E481E491F4A1F4BFD
:0611660000F041FA04B0A4
:10116C001E480068401C1D49086011480068114960
:10117C00FEF7DCFFFA2148430F49086000210F48B5
:02118C00016000
:02118E0004E07B
:0A1190000D480068401C0C4908607F
:0A119A000B48016809480068814213
:0211A400F4D382
:0411A600FFF733F824
:0411AA00FFF7A1F8B2
:0411AE00FFF771F9DD
:0211B200DBE779
:0411B4000001000036
:0411B80024000C40C3
:0411BC000C02000021
:0411C0004C4F000090
:0411C40010040020F3
:0411C80008040020F7
:0411CC00807F000020
:0411D00020000C40AF
:0411D4002C010000EA
:0411D80024170000D8
:0411DC0038170000C0
:0411E00045170000AF
:0411E4004B170000A5
:0411E80004040020DB
:1011EC000B212848016028492848016028492948D2
:1011FC00016029492948016029492A4801602A4986
:10120C002A48016000212A4801602A492A480160C5
:10121C002A492B4801601E492A48016000212A48AE
:10122C0001602A4801602A492A48016000212A48A5
:10123C0001602A4801602A4801601549294801606B
:10124C000021294801602948016029492948016089
:10125C0000212948016029492948016029492A4867
:10126C0001600B492948016018212948016030218F
:10127C00284801602849294801600021284801605C
:02128C007047A9
:0412900004800B408B
:0412940040010054C1
:0412980008800B407F
:04129C00FFFF000050
:0412A0000C800B4073
:0412A40000600000E6
:0412A80010800B4067
:0412AC0000C000007E
:0412B00014800B405B
:0412B400CF0300FC68
:0412B80018800B404F
:0412BC001C800B4047
:0412C000FE7F0000AD
:0412C40004000C40D6
:0412C80055150000B8
:0412CC0008000C40CA
:0412D0000C000C40C2
:0412D40010000C40BA
:0412D80014000C40B2
:0412DC00FFFFFF3FD2
:0412E00018000C40A6
:0412E4001C000C409E
:0412E80004800C4032
:0412EC0008800C402A
:0412F0000C800C4022
:0412F40010800C401A
:0412F80014800C4012
:0412FC00000CFFC023
:0413000018800C4005
:041304001C800C40FD
:04130800801F000042
:04130C0004800E400B
:0413100040555501EE
:0413140008800E40FF
:041318000C800E40F7
:04131C0010800E40EF
:0413200014800E40E7
:04132400C0FFFF0304
:0413280018800E40DB
:04132C001C800E40D3
:10133000F0B544464D4630B481B01E4680468946DD
:06134000009200250124CB
:0213460001E0C4
:0413480049464C4383
:04134C0040462146B0
:06135000FEF7F2FE484525
:02135600F7D2CC
:0213580025E08E
:04135A0040462146A2
:0A135E00FEF7EBFE0746404621466D
:0A136800FEF705FF804620464946C7
:08137200FEF7E1FE0446002D28
:04137A0003D1012F6B
:04137E0001DA002C64
:0213820010D188
:021384000A2F2E
:0413860001DA302038
:02138A0008E079
:04138C00009A002A99
:0413900001D0412027
:0213940000E077
:021396006120D4
:061398000921C9430844CD
:08139E0038443070761C6D1C10
:0213A600002C19
:0813A800D7D10020307001B024
:0813B00030BCA046A946F0BDC7
:0613B80000B50B46002801
:0A13BE0003D540422D221A705B1C7B
:0413C8000A210022D4
:0413CC00FFF7B0FF78
:0213D00000BD5E
:0413D2000146302977
:0413D60003DB3A29D2
:0413DA0001DA3038CC
:0213DE00704756
:0413E00041B261298C
:0613E40005DB41B26729A0
:0613EA0002DA40B25738A0
:0213F000704744
:0413F20041B241299A
:0613F60005DB41B24729AE
:0613FC0002DA40B23738AE
:02140200704731
:041404000020C043C1
:0214080070472B
:10140A00F0B5444610B481B016460F4680460093A4
:04141A003C68002505
:02141E0007E0E5
:02142000864202
:0E1422000BDB754305440023E0568046641C36
:04143000404640B240
:06143400FFF7CDFF0028C8
:02143A00F1D5EA
:0C143C003C60009B1D60404640B201B0C7
:0614480010BCA046F0BD3F
:10144E00F0B582B01446079E0F4600901D46002D43
:04145E0001D0302168
:0214620000E0A8
:02146400202145
:06146600684601713546E5
:02146C0000E09E
:02146E00641EFA
:0A14700029466D1C00228956002950
:04147A0007D0012C6A
:02147E00F6DA9C
:0214800004E086
:0814820001A9002009560098A1
:02148A00B84761
:06148C002546641E012D3F
:02149200F6DA88
:0214940002E074
:0414960049B20098BF
:02149A00B84751
:0C149C003446761C002561570C46002CDD
:0414A800F5D102B0C8
:0214AC00F0BD91
:0C14AE00F0B585B01C460D4607460092C4
:0214BA0082E0CE
:0414BC0042B2252AE9
:0614C00003D041B23846E2
:0214C600A84735
:0214C8007BE0C7
:1014CA00002600210191009A5056521C00920246B1
:0214DA00302AB6
:0C14DC0004D1009A9057521C0092012687
:0414E80042B2302AB2
:0614EC0008DB42B23A2ABF
:0A14F20005DA40B200A90A2201AB9E
:0414FC00FFF785FF72
:0415000042B2252AA4
:041504005AD0582A37
:041508002ED0632A54
:04150C0043D0642A3A
:041510001AD0732A50
:0415140046D0752A1E
:0415180004D0782A59
:04151C0024D0002AAD
:021520004FD1A9
:0215220058E08F
:0C152400241D221F10680A21002202ABC7
:10153000FFF7FEFE02AA04B4334638462946029A53
:06154000FFF785FF01B07A
:021546003CE087
:08154800241D221F106802A9F6
:10155000FFF732FF02AA04B4334638462946029AFE
:06156000FFF775FF01B06A
:021566002CE077
:0C15680042B2582A241D221F10681021D6
:0415740001D101227E
:0215780000E091
:02157A0000224D
:02157C0002ABC0
:10157E00FFF7D7FE02AA04B4334638462946029A2C
:06158E00FFF75EFF01B053
:0215940015E060
:0A159600241D221F0026915738463D
:0215A000A8475A
:0215A2000EE059
:1015A400241D221F126804B438462946029A0023D7
:0615B400FFF74BFF01B040
:0215BA0002E04D
:0415BC0041B23846BA
:0215C000A8473A
:1015C200009E009A521C0092002170560246002A88
:0215D20000D047
:0215D40072E7BC
:0215D60005B05E
:0215D800F0BD64
:0815DA00024A11600249086099
:0215E200704750
:0415E40030050020AE
:0415E80034050020A6
:1015EC000FB410B503AB0448016804480068029AB4
:0415FC00FFF757FF9F
:0216000010BD1B
:04160400300500208D
:041608003405002085
:0801DC0030050020370500206A
:04020C00006CDC02A4
:060494000D48006800287D
:10049A0016D001210C4801600C490C4801600C4837
:0604AA0000680C498842C5
:0804B00002D30021094801609C
:1004B80001210A48016005490948016000210148F5
:0204C8000160D1
:0204CA00704779
:0404CC0038050020CF
:0404D00020800B403D
:0404D4000002000022
:0404D80020000C40B4
:0404DC0004040020F4
:0404E00029230000CC
:0404E40024800B4025
:0404E80024000C40A0
:0801E4000404002017040020B0
:0204EC0000B559
:0404EE0000F00DF815
:0604F20000F007F80248CB
:0404F80001F0E2F835
:0204FC0000BD41
:0405000000000340B4
:0205040000B540
:0405060000F071FE92
:02050A0000BD32
:10050C0000B501212548016025492648016026498E
:10051C0026480160006808210843244908602348E4
:10052C0000680821C9430840204908602048006839
:02053C00204954
:10053E00FFF7FBFD282148431F49086000211E4894
:02054E0001604A
:0205500004E0C5
:0A0552001D480068401C1B490860AA
:0A055C001A4801681848006881423F
:02056600F4D3CC
:08056800184800680221084058
:10057000FAD017480068082108431549086000218F
:1005800014480160124800680821C9430840104916
:10059000086011490648016010490D480160104982
:0405A000104801609E
:0205A40000BD98
:0405A8000800024005
:0405AC000201000048
:0405B0000C000240F9
:0405B400040500003A
:0405B80004000240F9
:0405BC000C0200002D
:0405C000E0C0350161
:0405C4000C04002003
:0405C8000804002003
:0405CC0000000240E9
:0405D0001C000240C9
:0405D4000080014062
:0405D8000601000018
:0405DC0058C0882358
:0405E0000100000115
:0405E40028000240A9
:10160C00064800680121C9430840044908600448A1
:08161C000068401C024908604F
:0216240070470D
:0416280054800740A3
:04162C004005002055
:10163000064800680121C94308400449086004487D
:081640000068401C024908602B
:021648007047E9
:04164C0054000840FE
:04165000440500202D
:10165400074800680121C943084005490860012181
:0E1664000448016004480068401C0349086007
:021672007047BF
:041674005480094055
:041678003805002011
:04167C0048050020FD
:0801EC00380500204B0500203E
:061680000A4A0B4802605B
:0A1686000B480068202210404009C4
:0C169000F9D10848006808221040C0088A
:0E169C00F3D148B2054A1060014A05480260C9
:0216AA00704787
:0416AC0080010000B9
:0416B00020000C40CA
:0416B40018000340D7
:0416B80000000340EB
:0416BC0024000C40BA
:0E16C00030B50446114D1249086812498C429B
:0E16CE0007D111490A6807210A400121914005
:0416DC00FEF72CFDEC
:0216E000A90857
:1016E200FEF729FD81093F2210406162A06260215C
:1016F200E16209492163216B012211432163002028
:02170200074995
:04170400FFF769FF83
:0217080030BDF2
:04170C008025000034
:041710000C020000C7
:04171400000003408E
:041718002800024063
:04171C0000010000C8
:04172000811600002E
:0802100030480068202108407D
:0A02180004D12F48007801210843AB
:0202220003E0F7
:080224002C480078FE2108407F
:0C022C002A490870284800682949084049
:0A02380004D1274800780221084392
:0202420003E0D7
:0802440024480078FD21084068
:0C024C0022490870204800682249084040
:0A02580004D11F4800780421084378
:0202620003E0B7
:080264001C480078FB21084052
:0C026C001A490870184800681B49084037
:0A02780004D117480078082108435C
:0202820003E097
:0802840014480078F72108403E
:0C028C001249087010480068144908402E
:0A02980004D10F480078102108433C
:0202A20003E077
:0802A4000C480078EF2108402E
:0C02AC000A490870084800680D49084025
:0A02B80004D1074800782021084314
:0202C20003E057
:0802C40004480078DF21084026
:0402CC00024908706B
:0202D000704775
:0402D40000800C405A
:0402D80000040020FE
:0402DC00000100001D
:0402E0000002000018
:0402E4000004000012
:0402E800000800000A
:0402EC00008000008E
:0802F0005B4800780221084080
:0402F80001D0012010
:0202FC0000E020
:0202FE000020DE
:0803000058490968584A1140F0
:0403080001D00121FE
:02030C0000E00F
:02030E000021CC
:02031000884221
:0403120008D00028E7
:0803160003D053495448016073
:02031E0002E0FB
:0603200051495348016041
:080326004E4800780121084057
:04032E0001D00120D9
:0203320000E0E9
:020334000020A7
:080336004B4909684E4A1140D1
:04033E0001D00121C8
:0203420000E0D9
:02034400002196
:020346008842EB
:0403480008D00028B1
:08034C0003D049494648016055
:0203540002E0C5
:0603560047494548016023
:08035C00404800782021084010
:0403640001D00120A3
:0203680000E0B3
:02036A00002071
:08036C003D490968414A1140B6
:0403740001D0012192
:0203780000E0A3
:02037A00002160
:02037C008842B5
:04037E0008D000287B
:0803820003D03C493948016039
:02038A0002E08F
:06038C003A493848016007
:080392003348007808210840FF
:04039A0001D001206D
:02039E0000E07D
:0203A00000203B
:0803A20030490968354A114099
:0403AA0001D001215C
:0203AE0000E06D
:0203B00000212A
:0203B20088427F
:0403B40008D0002845
:0803B80003D030492B4801601D
:0203C00002E059
:0603C2002E492A480160EB
:0803C8002548007804210840DB
:0403D00001D0012037
:0203D40000E047
:0203D600002005
:0803D80022490968802211404E
:0403E00001D0012126
:0203E40000E037
:0203E6000021F4
:0203E800884249
:0A03EA0009D11D490968234A11409A
:0403F40001D0012112
:0203F80000E023
:0203FA000021E0
:0203FC00884235
:0203FE0008D025
:020400000028D2
:0804020003D01F4919480160F5
:02040A0002E00E
:06040C001D4918480160C3
:08041200134800781021084096
:04041A0001D00120EC
:02041E0000E0FC
:020420000020BA
:0804220010490968184A114055
:04042A0001D00121DB
:02042E0000E0EC
:020430000021A9
:020432008842FE
:0A04340009D10B490968144A114070
:04043E0001D00121C7
:0204420000E0D8
:02044400002195
:020446008842EA
:0204480008D0DA
:02044A00002888
:08044C0003D0104906480160CD
:020454007047EF
:060456000E49054801609B
:02045C007047E7
:040460000004002074
:0404640000000C4048
:04046800000200008E
:04046C0020000C4020
:0404700024000C4018
:040474000004000080
:040478000008000078
:04047C00001000006C
:040480000001000077
:0404840080010000F3
:040488000020000050
:04048C00004000002C
:040490000060000008
:0801F4000004002000040020BB
:0801FC002C0500202F05002056
:1005E800A3480068A24909680122D2431140A04AE1
:0605F80011602021084003
:1005FE006FD09E4801689E480068081A9E49096897
:10060E0089009D4A88509A490A6881184008014419
:10061E009B480160964800689649086096480068B5
:0C062E00401C94490860964800680128B0
:04063A000CD00228B6
:04063E0011D00328AC
:040642001FD0042899
:040646004AD0052869
:04064A003DD0062871
:04064E0041D000286F
:0206520044D191
:020654007047ED
:0C06560000218E48016002218C480160E8
:020662007047DF
:100664008B480068401C8A49086089480068022851
:0E06740033D188498848016004218448016020
:020682007047BF
:1006840000218648016086480160864801608648EA
:10069400016086480160864801608648016086489A
:1006A400016086480160864801608648016086488A
:1006B4000160864801600421744801600021844877
:0206C4000160D3
:0206C60070477B
:0A06C80083480068401C8249086066
:0206D20070476F
:0A06D40080480068401C7F49086060
:0206DE00704763
:0806E000654800687D490840EF
:0206E80000D13F
:0206EA00C4E06A
:1006EC00654800688000684941587A480068081AD3
:1006FC0024214843604909688900634A8958754A2E
:0A070C00116000225C490A60002819
:0407160001D00146C7
:02071A0000E0FD
:02071C00414258
:04071E00490800285E
:0407220001D00120E1
:0207260001E0F0
:040728000020C043AA
:10072C0041435348006801446B48016065480068C8
:0C073C00401C6449086053480068012814
:0407480009D00428A8
:04074C0008D00528A4
:0407500007D00628A0
:040754000DD000289C
:0207580000D0CF
:02075A0087E036
:02075C0086E035
:02075E0085E034
:0207600084E033
:060762005B48006803285B
:0807680002D10621484801609E
:020770007CE02B
:0607720059480068202830
:0807780003D35748006825284F
:0207800003D3A1
:0607820055480068002844
:0207880001D19D
:02078A00062047
:02078C0000E08B
:02078E00032046
:0A0790003F49086050480068222825
:0C079A0005D04D480068401C4C49086028
:0207A60002E06F
:0607A80000214A48016037
:0807AE00494800684D498842EA
:0807B60002D303213548016064
:1007BE0000214A48016047480068400835490860F2
:1007CE00454800684008334908604248006841497E
:1007DE000968491CC8408008304908603E480068D6
:1007EE003D490968491CC84080082C4908603948B1
:1007FE00006840082B4908603748006840082949BE
:10080E00086034480068400828490860324800688B
:10081E004008264908602F4800682E490968491C7F
:10082E00C8408008234908602B4800682A49096897
:10083E00491CC84080081F490860264800682549A1
:10084E000968491CC84080081C4908602248006895
:0E085E0021490968491CC840800818490860F3
:0A086C0000211A4801601F480160D6
:020876007047C9
:0408780054000740E1
:04087C001000074021
:040880002004002030
:040884001C0500202F
:040888002804002020
:04088C00140007400D
:04089000200500201F
:040894002404002018
:040898002004000038
:04089C0058000740B9
:0408A00018000740F5
:0408A4001C000740ED
:0408A800780007408D
:0408AC007C00074085
:0408B000108007406D
:0408B4001480074065
:0408B800188007405D
:0408BC001C80074055
:0408C00070800740FD
:0408C40074800740F5
:0408C80078800740ED
:0408CC007C800740E5
:0408D0001C040020E4
:0408D40024050020D7
:0408D80018040020E0
:0408DC000004000014
:0408E00028050020C7
:0408E40018050020D3
:0408E800110E0000ED
:0408EC000080074041
:0408F00000000740BD
:08020400180400202B05002066
:02018000034832
:0401820080F3088876
:0201860003482C
:020188008047AE
:02018A00034828
:02018C0000472A
:0C01900000040020C1000000C5000000B9
:02019C00FEE77C
:02019E00FEE77A
:0201A000FEE778
:0201A200FEE776
:0201A400FEE774
:0201A600FEE772
:0201A800FEE770
:0201AA00FEE76E
:0201AC00FEE76C
:0201AE00FEE76A
:0201B000FEE768
:0201B200FEE766
:0201B400FEE764
:0201B600FEE762
:0201B800FEE760
:0201BA00FEE75E
:0201BC00FEE75C
:0201BE00FEE75A
:0201C000FEE758
:0201C200FEE756
:0201C400FEE754
:0201C600FEE752
:0201C800FEE750
:0201CA00FEE74E
:0201CC00FEE74C
:0201CE00FEE74A
:0201D000FEE748
:0201D200FEE746
:0201D400FEE744
:0201D600FEE742
:0201D800FEE740
:0200C000704787
:0200C4001348DF
:0200C6001449DB
:0200C800491CD1
:0200CA0007E04D
:0200CC001CC84E
:0200CE005B1CB9
:0200D000257891
:0200D2001570A7
:0200D4000134F5
:0200D6000132F5
:0200D8009A424A
:0200DA00F9D15A
:0200DC00884258
:0200DE00F5D15A
:0200E0000E48C8
:0200E2000F49C4
:0200E400491CB5
:0200E6000024F4
:0200E80005E031
:0200EA000CC840
:0200EC005B1C9B
:0200EE0014708C
:0200F0000132DB
:0200F2009A4230
:0200F400FBD13E
:0200F60088423E
:0200F800F7D13E
:0200FA000A4CAE
:0200FC000A4DAB
:0200FE006D1C77
:02010000764641
:0201020001E01A
:0201040004CC29
:02010600904720
:02010800AC4207
:02010A00FBD127
:02010C000748A2
:02010E0008499E
:020110008E4619
:020112000047A4
:1001140000000000FFFFFFFFDC0100000B020000F5
:1001240000000000FFFFFFFFF5080000350100009C
:02013400FEE7E4
:02013600FEE7E2
:0201380000299C
:02013A00FCD0F7
:02013C008842F7
:02013E0002D1EC
:0201400000219C
:0201420001209A
:02014400704702
:0201460002D8DD
:020148000100B4
:02014A00002093
:02014C007047FA
:02014E008C46DD
:020150000B00A2
:02015200420861
:020154009342D4
:0201560000D8CF
:020158005B004A
:02015A009342CE
:02015C00FCD9CC
:02015E0002009D
:0201600000207D
:020162009A42BF
:0201640000D3C6
:02016600D21AAB
:02016800404114
:02016A005B0830
:02016C008B42C4
:02016E00F8D2C5
:0201700011007C
:02017200002863
:020174007047D2
:0201760000B5D2
:04017800FFF7DEFFB0
:02017C00080079
:02017E0000BDC2
:00000001FF
